{
  "contractName": "EVoting",
  "abi": [
    {
      "inputs": [],
      "stateMutability": "nonpayable",
      "type": "constructor"
    },
    {
      "anonymous": false,
      "inputs": [
        {
          "indexed": false,
          "internalType": "uint256",
          "name": "candidateID",
          "type": "uint256"
        },
        {
          "indexed": false,
          "internalType": "string",
          "name": "name",
          "type": "string"
        },
        {
          "indexed": false,
          "internalType": "string",
          "name": "politicalSide",
          "type": "string"
        },
        {
          "indexed": false,
          "internalType": "uint256",
          "name": "votesNumber",
          "type": "uint256"
        }
      ],
      "name": "Candidated",
      "type": "event"
    },
    {
      "anonymous": false,
      "inputs": [
        {
          "indexed": false,
          "internalType": "uint256",
          "name": "id",
          "type": "uint256"
        },
        {
          "indexed": false,
          "internalType": "address",
          "name": "elector",
          "type": "address"
        },
        {
          "indexed": false,
          "internalType": "uint256",
          "name": "voteChoice",
          "type": "uint256"
        }
      ],
      "name": "Voted",
      "type": "event"
    },
    {
      "inputs": [],
      "name": "candidateID",
      "outputs": [
        {
          "internalType": "uint256",
          "name": "",
          "type": "uint256"
        }
      ],
      "stateMutability": "view",
      "type": "function",
      "constant": true
    },
    {
      "inputs": [
        {
          "internalType": "uint256",
          "name": "",
          "type": "uint256"
        }
      ],
      "name": "candidates",
      "outputs": [
        {
          "internalType": "uint256",
          "name": "candidateID",
          "type": "uint256"
        },
        {
          "internalType": "string",
          "name": "name",
          "type": "string"
        },
        {
          "internalType": "string",
          "name": "politicalSide",
          "type": "string"
        },
        {
          "internalType": "uint256",
          "name": "votesNumber",
          "type": "uint256"
        }
      ],
      "stateMutability": "view",
      "type": "function",
      "constant": true
    },
    {
      "inputs": [],
      "name": "dapp_name",
      "outputs": [
        {
          "internalType": "string",
          "name": "",
          "type": "string"
        }
      ],
      "stateMutability": "view",
      "type": "function",
      "constant": true
    },
    {
      "inputs": [],
      "name": "elector",
      "outputs": [
        {
          "internalType": "string",
          "name": "",
          "type": "string"
        }
      ],
      "stateMutability": "view",
      "type": "function",
      "constant": true
    },
    {
      "inputs": [],
      "name": "id",
      "outputs": [
        {
          "internalType": "uint256",
          "name": "",
          "type": "uint256"
        }
      ],
      "stateMutability": "view",
      "type": "function",
      "constant": true
    },
    {
      "inputs": [],
      "name": "voteChoice",
      "outputs": [
        {
          "internalType": "uint256",
          "name": "",
          "type": "uint256"
        }
      ],
      "stateMutability": "view",
      "type": "function",
      "constant": true
    },
    {
      "inputs": [],
      "name": "voteCount",
      "outputs": [
        {
          "internalType": "uint256",
          "name": "",
          "type": "uint256"
        }
      ],
      "stateMutability": "view",
      "type": "function",
      "constant": true
    },
    {
      "inputs": [
        {
          "internalType": "uint256",
          "name": "",
          "type": "uint256"
        }
      ],
      "name": "votes",
      "outputs": [
        {
          "internalType": "uint256",
          "name": "id",
          "type": "uint256"
        },
        {
          "internalType": "address",
          "name": "elector",
          "type": "address"
        },
        {
          "internalType": "uint256",
          "name": "voteChoice",
          "type": "uint256"
        }
      ],
      "stateMutability": "view",
      "type": "function",
      "constant": true
    },
    {
      "inputs": [],
      "name": "votesNumber",
      "outputs": [
        {
          "internalType": "uint256",
          "name": "",
          "type": "uint256"
        }
      ],
      "stateMutability": "view",
      "type": "function",
      "constant": true
    },
    {
      "inputs": [
        {
          "internalType": "string",
          "name": "_name",
          "type": "string"
        },
        {
          "internalType": "string",
          "name": "_politicalSide",
          "type": "string"
        }
      ],
      "name": "candidateYourself",
      "outputs": [],
      "stateMutability": "nonpayable",
      "type": "function"
    },
    {
      "inputs": [
        {
          "internalType": "uint256",
          "name": "_voteChoice",
          "type": "uint256"
        }
      ],
      "name": "createVote",
      "outputs": [],
      "stateMutability": "nonpayable",
      "type": "function"
    }
  ],
  "bytecode": "0x60806040526000600255600060035560006004556000600555600060065534801561002957600080fd5b506040518060400160405280600c81526020017f65566f74696e672044417070000000000000000000000000000000000000000081525060009080519060200190610075929190610146565b506040518060800160405280600081526020016040518060400160405280600981526020017f4e756c6c20566f746500000000000000000000000000000000000000000000008152508152602001604051806020016040528060008152508152602001600081525060086000808152602001908152602001600020600082015181600001556020820151816001019080519060200190610116929190610146565b506040820151816002019080519060200190610133929190610146565b50606082015181600301559050506101e3565b828054600181600116156101000203166002900490600052602060002090601f016020900481019282601f1061018757805160ff19168380011785556101b5565b828001600101855582156101b5579182015b828111156101b4578251825591602001919060010190610199565b5b5090506101c291906101c6565b5090565b5b808211156101df5760008160009055506001016101c7565b5090565b610c40806101f26000396000f3fe608060405234801561001057600080fd5b50600436106100a95760003560e01c8063af640d0f11610071578063af640d0f14610428578063b3ea346b14610446578063baceb7c5146104c9578063c6384071146104e7578063db324ec614610505578063fa954aa014610523576100a9565b806333498f54146100ae5780633477ee2e14610200578063419873c6146103215780635df813301461033f578063820100f4146103a5575b600080fd5b6101fe600480360360408110156100c457600080fd5b81019080803590602001906401000000008111156100e157600080fd5b8201836020820111156100f357600080fd5b8035906020019184600183028401116401000000008311171561011557600080fd5b91908080601f016020809104026020016040519081016040528093929190818152602001838380828437600081840152601f19601f8201169050808301925050505050505091929192908035906020019064010000000081111561017857600080fd5b82018360208201111561018a57600080fd5b803590602001918460018302840111640100000000831117156101ac57600080fd5b91908080601f016020809104026020016040519081016040528093929190818152602001838380828437600081840152601f19601f820116905080830192505050505050509192919290505050610551565b005b61022c6004803603602081101561021657600080fd5b810190808035906020019092919050505061071b565b604051808581526020018060200180602001848152602001838103835286818151815260200191508051906020019080838360005b8381101561027c578082015181840152602081019050610261565b50505050905090810190601f1680156102a95780820380516001836020036101000a031916815260200191505b50838103825285818151815260200191508051906020019080838360005b838110156102e25780820151818401526020810190506102c7565b50505050905090810190601f16801561030f5780820380516001836020036101000a031916815260200191505b50965050505050505060405180910390f35b61032961087b565b6040518082815260200191505060405180910390f35b61036b6004803603602081101561035557600080fd5b8101908080359060200190929190505050610881565b604051808481526020018373ffffffffffffffffffffffffffffffffffffffff168152602001828152602001935050505060405180910390f35b6103ad6108cb565b6040518080602001828103825283818151815260200191508051906020019080838360005b838110156103ed5780820151818401526020810190506103d2565b50505050905090810190601f16801561041a5780820380516001836020036101000a031916815260200191505b509250505060405180910390f35b610430610969565b6040518082815260200191505060405180910390f35b61044e61096f565b6040518080602001828103825283818151815260200191508051906020019080838360005b8381101561048e578082015181840152602081019050610473565b50505050905090810190601f1680156104bb5780820380516001836020036101000a031916815260200191505b509250505060405180910390f35b6104d1610a0d565b6040518082815260200191505060405180910390f35b6104ef610a13565b6040518082815260200191505060405180910390f35b61050d610a19565b6040518082815260200191505060405180910390f35b61054f6004803603602081101561053957600080fd5b8101908080359060200190929190505050610a1f565b005b600082511161055f57600080fd5b6006600081548092919060010191905055506040518060800160405280600654815260200183815260200182815260200160008152506008600060065481526020019081526020016000206000820151816000015560208201518160010190805190602001906105d0929190610b6d565b5060408201518160020190805190602001906105ed929190610b6d565b50606082015181600301559050507f647d71553b8e3a13f258eff208e46ab04885268c81a1902b53578b92ea30b81760065483836000604051808581526020018060200180602001848152602001838103835286818151815260200191508051906020019080838360005b83811015610673578082015181840152602081019050610658565b50505050905090810190601f1680156106a05780820380516001836020036101000a031916815260200191505b50838103825285818151815260200191508051906020019080838360005b838110156106d95780820151818401526020810190506106be565b50505050905090810190601f1680156107065780820380516001836020036101000a031916815260200191505b50965050505050505060405180910390a15050565b6008602052806000526040600020600091509050806000015490806001018054600181600116156101000203166002900480601f0160208091040260200160405190810160405280929190818152602001828054600181600116156101000203166002900480156107cd5780601f106107a2576101008083540402835291602001916107cd565b820191906000526020600020905b8154815290600101906020018083116107b057829003601f168201915b505050505090806002018054600181600116156101000203166002900480601f01602080910402602001604051908101604052809291908181526020018280546001816001161561010002031660029004801561086b5780601f106108405761010080835404028352916020019161086b565b820191906000526020600020905b81548152906001019060200180831161084e57829003601f168201915b5050505050908060030154905084565b60065481565b60076020528060005260406000206000915090508060000154908060010160009054906101000a900473ffffffffffffffffffffffffffffffffffffffff16908060020154905083565b60018054600181600116156101000203166002900480601f0160208091040260200160405190810160405280929190818152602001828054600181600116156101000203166002900480156109615780601f1061093657610100808354040283529160200191610961565b820191906000526020600020905b81548152906001019060200180831161094457829003601f168201915b505050505081565b60025481565b60008054600181600116156101000203166002900480601f016020809104026020016040519081016040528092919081815260200182805460018160011615610100020316600290048015610a055780601f106109da57610100808354040283529160200191610a05565b820191906000526020600020905b8154815290600101906020018083116109e857829003601f168201915b505050505081565b60045481565b60035481565b60055481565b806006541015610a2e57600080fd5b60036000815480929190600101919050555060016008600083815260200190815260200160002060030160008282540192505081905550604051806060016040528060035481526020013373ffffffffffffffffffffffffffffffffffffffff168152602001828152506007600060035481526020019081526020016000206000820151816000015560208201518160010160006101000a81548173ffffffffffffffffffffffffffffffffffffffff021916908373ffffffffffffffffffffffffffffffffffffffff160217905550604082015181600201559050507f1abe610cf2bf87e57dcc1181fcf5ac0934e843d8344ab9eed6e86c799f62585e6003543383604051808481526020018373ffffffffffffffffffffffffffffffffffffffff168152602001828152602001935050505060405180910390a150565b828054600181600116156101000203166002900490600052602060002090601f016020900481019282601f10610bae57805160ff1916838001178555610bdc565b82800160010185558215610bdc579182015b82811115610bdb578251825591602001919060010190610bc0565b5b509050610be99190610bed565b5090565b5b80821115610c06576000816000905550600101610bee565b509056fea2646970667358221220dbe7ddc56464b06a91d3a08a1015a3cd362846970ce72b3254298ea31ce0c38464736f6c63430007030033",
  "immutableReferences": {},
  "source": "// SPDX-License-Identifier: UNLICENSED\r\npragma solidity ^0.7.0;\r\n\r\ncontract EVoting {\r\n    string public dapp_name;\r\n    string public elector;\r\n    uint public id = 0;\r\n    uint public voteCount = 0;\r\n    uint public voteChoice = 0;\r\n    uint public votesNumber = 0;\r\n    uint public candidateID = 0;\r\n\r\n    mapping(uint => Vote) public votes;\r\n    mapping(uint => Candidate) public candidates;\r\n\r\n    constructor() {\r\n        dapp_name= \"eVoting DApp\";\r\n        candidates[0] = Candidate(0, \"Null Vote\", \"\", 0);\r\n    }\r\n\r\n    event Voted (\r\n        uint id,\r\n        address elector,\r\n        uint voteChoice\r\n    );\r\n\r\n    event Candidated (\r\n      uint candidateID,\r\n      string name,\r\n      string politicalSide,\r\n      uint votesNumber\r\n    );\r\n\r\n    struct Vote {\r\n        uint id;\r\n        address elector;\r\n        uint voteChoice;\r\n    }\r\n\r\n    struct Candidate {\r\n      uint candidateID;\r\n      string name;\r\n      string politicalSide;\r\n      uint votesNumber;\r\n    }\r\n\r\n    function candidateYourself(string memory _name, string memory _politicalSide) public {\r\n      require(bytes(_name).length > 0);\r\n      candidateID++;\r\n      candidates[candidateID] = Candidate(candidateID, _name, _politicalSide, 0);\r\n      emit Candidated(candidateID, _name, _politicalSide, 0);\r\n    }\r\n\r\n    function createVote(uint _voteChoice) public {\r\n        //choices will be from candidate 1 to candidate X. 0 is the default value, means no vote yet\r\n        require(candidateID >= _voteChoice);\r\n        //increment count\r\n        voteCount++;\r\n        candidates[_voteChoice].votesNumber += 1;\r\n        //create new vote\r\n        votes[voteCount] = Vote(voteCount, msg.sender, _voteChoice);\r\n        //trigger event\r\n        emit Voted(voteCount, msg.sender, _voteChoice);\r\n    }\r\n\r\n}\r\n\r\n// transaction cost 351562 gas      execution cost 217846 gas\r\n",
  "sourcePath": "C:/Users/hew580105nl/Desktop/Ethereum/source/eVoting_DApp/src/contracts/EVoting.sol",
  "compiler": {
    "name": "solc",
    "version": "0.7.3+commit.9bfce1f6.Emscripten.clang"
  },
  "schemaVersion": "3.3.1",
  "updatedAt": "2020-11-09T11:46:37.394Z",
  "networkType": "ethereum",
  "devdoc": {
    "kind": "dev",
    "methods": {},
    "version": 1
  },
  "userdoc": {
    "kind": "user",
    "methods": {},
    "version": 1
  }
}